{"abi":[{"type":"constructor","inputs":[{"name":"_blockGasLimit","type":"uint64","internalType":"uint64"},{"name":"initializer","type":"address","internalType":"address"}],"stateMutability":"nonpayable"},{"type":"function","name":"BLOCK_GAS_LIMIT_SETTER_ROLE","inputs":[],"outputs":[{"name":"","type":"bytes32","internalType":"bytes32"}],"stateMutability":"view"},{"type":"function","name":"DEFAULT_ADMIN_ROLE","inputs":[],"outputs":[{"name":"","type":"bytes32","internalType":"bytes32"}],"stateMutability":"view"},{"type":"function","name":"PAUSER_ROLE","inputs":[],"outputs":[{"name":"","type":"bytes32","internalType":"bytes32"}],"stateMutability":"view"},{"type":"function","name":"SEQUENCER_ROLE","inputs":[],"outputs":[{"name":"","type":"bytes32","internalType":"bytes32"}],"stateMutability":"view"},{"type":"function","name":"WITHDRAW_ROLE","inputs":[],"outputs":[{"name":"","type":"bytes32","internalType":"bytes32"}],"stateMutability":"view"},{"type":"function","name":"clear","inputs":[],"outputs":[],"stateMutability":"nonpayable"},{"type":"function","name":"getBlockGasLimit","inputs":[],"outputs":[{"name":"","type":"uint64","internalType":"uint64"}],"stateMutability":"view"},{"type":"function","name":"getRoleAdmin","inputs":[{"name":"role","type":"bytes32","internalType":"bytes32"}],"outputs":[{"name":"","type":"bytes32","internalType":"bytes32"}],"stateMutability":"view"},{"type":"function","name":"getTransactions","inputs":[{"name":"blockNumber","type":"uint64","internalType":"uint64"}],"outputs":[{"name":"","type":"tuple[]","internalType":"struct Inbox.Transaction[]","components":[{"name":"encryptedTransaction","type":"bytes","internalType":"bytes"},{"name":"sender","type":"address","internalType":"address"},{"name":"gasLimit","type":"uint64","internalType":"uint64"},{"name":"cumulativeGasLimit","type":"uint64","internalType":"uint64"}]}],"stateMutability":"view"},{"type":"function","name":"grantRole","inputs":[{"name":"role","type":"bytes32","internalType":"bytes32"},{"name":"account","type":"address","internalType":"address"}],"outputs":[],"stateMutability":"nonpayable"},{"type":"function","name":"hasRole","inputs":[{"name":"role","type":"bytes32","internalType":"bytes32"},{"name":"account","type":"address","internalType":"address"}],"outputs":[{"name":"","type":"bool","internalType":"bool"}],"stateMutability":"view"},{"type":"function","name":"initialize","inputs":[{"name":"dao","type":"address","internalType":"address"},{"name":"sequencer","type":"address","internalType":"address"}],"outputs":[],"stateMutability":"nonpayable"},{"type":"function","name":"initializer","inputs":[],"outputs":[{"name":"","type":"address","internalType":"address"}],"stateMutability":"view"},{"type":"function","name":"pause","inputs":[],"outputs":[],"stateMutability":"nonpayable"},{"type":"function","name":"paused","inputs":[],"outputs":[{"name":"","type":"bool","internalType":"bool"}],"stateMutability":"view"},{"type":"function","name":"renounceRole","inputs":[{"name":"role","type":"bytes32","internalType":"bytes32"},{"name":"callerConfirmation","type":"address","internalType":"address"}],"outputs":[],"stateMutability":"nonpayable"},{"type":"function","name":"revokeRole","inputs":[{"name":"role","type":"bytes32","internalType":"bytes32"},{"name":"account","type":"address","internalType":"address"}],"outputs":[],"stateMutability":"nonpayable"},{"type":"function","name":"setBlockGasLimit","inputs":[{"name":"newBlockGasLimit","type":"uint64","internalType":"uint64"}],"outputs":[],"stateMutability":"nonpayable"},{"type":"function","name":"submitEncryptedTransaction","inputs":[{"name":"blockNumber","type":"uint64","internalType":"uint64"},{"name":"encryptedTransaction","type":"bytes","internalType":"bytes"},{"name":"gasLimit","type":"uint64","internalType":"uint64"},{"name":"excessFeeRecipient","type":"address","internalType":"address"}],"outputs":[],"stateMutability":"payable"},{"type":"function","name":"supportsInterface","inputs":[{"name":"interfaceId","type":"bytes4","internalType":"bytes4"}],"outputs":[{"name":"","type":"bool","internalType":"bool"}],"stateMutability":"view"},{"type":"function","name":"unpause","inputs":[],"outputs":[],"stateMutability":"nonpayable"},{"type":"function","name":"withdraw","inputs":[{"name":"recipient","type":"address","internalType":"address"}],"outputs":[],"stateMutability":"nonpayable"},{"type":"event","name":"EncryptedTransactionSubmitted","inputs":[{"name":"index","type":"uint64","indexed":true,"internalType":"uint64"},{"name":"block","type":"uint64","indexed":true,"internalType":"uint64"},{"name":"encryptedTransaction","type":"bytes","indexed":false,"internalType":"bytes"},{"name":"sender","type":"address","indexed":false,"internalType":"address"},{"name":"gasLimit","type":"uint64","indexed":false,"internalType":"uint64"},{"name":"cumulativeGasLimit","type":"uint64","indexed":false,"internalType":"uint64"},{"name":"fee","type":"uint256","indexed":false,"internalType":"uint256"}],"anonymous":false},{"type":"event","name":"FeesWithdrawn","inputs":[{"name":"recipient","type":"address","indexed":false,"internalType":"address"}],"anonymous":false},{"type":"event","name":"Paused","inputs":[{"name":"account","type":"address","indexed":false,"internalType":"address"}],"anonymous":false},{"type":"event","name":"RoleAdminChanged","inputs":[{"name":"role","type":"bytes32","indexed":true,"internalType":"bytes32"},{"name":"previousAdminRole","type":"bytes32","indexed":true,"internalType":"bytes32"},{"name":"newAdminRole","type":"bytes32","indexed":true,"internalType":"bytes32"}],"anonymous":false},{"type":"event","name":"RoleGranted","inputs":[{"name":"role","type":"bytes32","indexed":true,"internalType":"bytes32"},{"name":"account","type":"address","indexed":true,"internalType":"address"},{"name":"sender","type":"address","indexed":true,"internalType":"address"}],"anonymous":false},{"type":"event","name":"RoleRevoked","inputs":[{"name":"role","type":"bytes32","indexed":true,"internalType":"bytes32"},{"name":"account","type":"address","indexed":true,"internalType":"address"},{"name":"sender","type":"address","indexed":true,"internalType":"address"}],"anonymous":false},{"type":"event","name":"Unpaused","inputs":[{"name":"account","type":"address","indexed":false,"internalType":"address"}],"anonymous":false},{"type":"error","name":"AccessControlBadConfirmation","inputs":[]},{"type":"error","name":"AccessControlUnauthorizedAccount","inputs":[{"name":"account","type":"address","internalType":"address"},{"name":"neededRole","type":"bytes32","internalType":"bytes32"}]},{"type":"error","name":"AlreadyInitialized","inputs":[]},{"type":"error","name":"BlockAlreadyFinalized","inputs":[]},{"type":"error","name":"BlockGasLimitExceeded","inputs":[]},{"type":"error","name":"EnforcedPause","inputs":[]},{"type":"error","name":"ExpectedPause","inputs":[]},{"type":"error","name":"InsufficientFunds","inputs":[]},{"type":"error","name":"TransferEtherFailed","inputs":[]},{"type":"error","name":"UnauthorizedInitializer","inputs":[]}],"bytecode":{"object":"0x608060405234801561001057600080fd5b506040516114ce3803806114ce83398101604081905261002f9161007a565b600180546001600160a01b03909216610100026001600160a81b0319909216919091179055600380546001600160401b039092166001600160401b03199092169190911790556100cc565b6000806040838503121561008d57600080fd5b82516001600160401b03811681146100a457600080fd5b60208401519092506001600160a01b03811681146100c157600080fd5b809150509250929050565b6113f3806100db6000396000f3fe6080604052600436106101355760003560e01c80635c975abb116100ab578063a217fddf1161006f578063a217fddf146103a0578063a44e7cfe146103b5578063ae0dad60146103c8578063d547741f146103e8578063e02023a114610408578063e63ab1e91461043c57600080fd5b80635c975abb146102e25780638456cb59146102fa57806391d148541461030f57806391de737e1461032f5780639ce110d71461036357600080fd5b80633f4ba83a116100fd5780633f4ba83a146102175780634842855c1461022c578063485cc9551461026057806351cff8d91461028057806352efea6e146102a0578063552fd4aa146102b557600080fd5b806301ffc9a71461013a578063248a9ca31461016f5780632cc8377d146101ad5780632f2ff15d146101d557806336568abe146101f7575b600080fd5b34801561014657600080fd5b5061015a610155366004610ed0565b610470565b60405190151581526020015b60405180910390f35b34801561017b57600080fd5b5061019f61018a366004610f01565b60009081526020819052604090206001015490565b604051908152602001610166565b3480156101b957600080fd5b506003546040516001600160401b039091168152602001610166565b3480156101e157600080fd5b506101f56101f0366004610f36565b6104a7565b005b34801561020357600080fd5b506101f5610212366004610f36565b6104d2565b34801561022357600080fd5b506101f561050a565b34801561023857600080fd5b5061019f7fac4f1890dc96c9a02330d1fa696648a38f3b282d2449c2d8e6f10507488c84c881565b34801561026c57600080fd5b506101f561027b366004610f62565b610520565b34801561028c57600080fd5b506101f561029b366004610f8c565b6105b6565b3480156102ac57600080fd5b506101f561062a565b3480156102c157600080fd5b506102d56102d0366004610fbe565b610675565b604051610166919061101f565b3480156102ee57600080fd5b5060015460ff1661015a565b34801561030657600080fd5b506101f56107b8565b34801561031b57600080fd5b5061015a61032a366004610f36565b6107ea565b34801561033b57600080fd5b5061019f7ff265e6f4485879ff06917e0b78d882e64c54d090917c00d06bf8720a31ba125681565b34801561036f57600080fd5b506001546103889061010090046001600160a01b031681565b6040516001600160a01b039091168152602001610166565b3480156103ac57600080fd5b5061019f600081565b6101f56103c33660046110d7565b610813565b3480156103d457600080fd5b506101f56103e3366004610fbe565b610a79565b3480156103f457600080fd5b506101f5610403366004610f36565b610ac7565b34801561041457600080fd5b5061019f7f5d8e12c39142ff96d79d04d15d1ba1269e4fe57bb9d26f43523628b34ba108ec81565b34801561044857600080fd5b5061019f7f65d7a28e3265b37a6474929f336521b332c1681b933f6cb9f3376673440d862a81565b60006001600160e01b03198216637965db0b60e01b14806104a157506301ffc9a760e01b6001600160e01b03198316145b92915050565b6000828152602081905260409020600101546104c281610aec565b6104cc8383610af6565b50505050565b6001600160a01b03811633146104fb5760405163334bd91960e11b815260040160405180910390fd5b6105058282610b88565b505050565b600061051581610aec565b61051d610bf3565b50565b60015461010090046001600160a01b031661054d5760405162dc149f60e41b815260040160405180910390fd5b60015461010090046001600160a01b0316331461057d57604051630d622feb60e01b815260040160405180910390fd5b6105a77fac4f1890dc96c9a02330d1fa696648a38f3b282d2449c2d8e6f10507488c84c882610af6565b506105b28282610c45565b5050565b7f5d8e12c39142ff96d79d04d15d1ba1269e4fe57bb9d26f43523628b34ba108ec6105e081610aec565b6105ea8247610cee565b6040516001600160a01b03831681527f792248b395a0ac81e65e6d79494b5382c8de690233f36c2e5e672f77044887c79060200160405180910390a15050565b7fac4f1890dc96c9a02330d1fa696648a38f3b282d2449c2d8e6f10507488c84c861065481610aec565b6001600160401b034316600090815260026020526040812061051d91610e23565b6001600160401b0381166000908152600260209081526040808320805482518185028101850190935280835260609492939192909184015b828210156107ad57838290600052602060002090600302016040518060800160405290816000820180546106e0906111b9565b80601f016020809104026020016040519081016040528092919081815260200182805461070c906111b9565b80156107595780601f1061072e57610100808354040283529160200191610759565b820191906000526020600020905b81548152906001019060200180831161073c57829003601f168201915b50505091835250506001828101546001600160a01b0381166020808501919091526001600160401b03600160a01b9092048216604085015260029094015416606090920191909152918352920191016106ad565b505050509050919050565b7f65d7a28e3265b37a6474929f336521b332c1681b933f6cb9f3376673440d862a6107e281610aec565b61051d610d62565b6000918252602082815260408084206001600160a01b0393909316845291905290205460ff1690565b61081b610d9d565b436001600160401b0316846001600160401b03161161084d576040516351c9b4cf60e11b815260040160405180910390fd5b6000610862486001600160401b038516611209565b9050803410156108855760405163356680b760e01b815260040160405180910390fd5b6001600160401b0380861660009081526002602052604081208054909290919082166108b25760006108f5565b826108be600184611220565b6001600160401b0316815481106108d7576108d7611247565b60009182526020909120600260039092020101546001600160401b03165b6003549091506001600160401b031661090e878361125d565b6001600160401b0316111561093657604051635013664360e11b815260040160405180910390fd5b826040518060800160405280898152602001336001600160a01b03168152602001886001600160401b031681526020018884610972919061125d565b6001600160401b0316905281546001810183556000928352602090922081519192600302019081906109a490826112cd565b50602082015160018201805460408501516001600160a01b039093166001600160e01b031990911617600160a01b6001600160401b03938416021790556060909201516002909101805467ffffffffffffffff19169183169190911790558881169083167f0ac44a68e7048007d82fa113a6c5d84bec8a110ed9e953d4f234fab3c9ecac5389338a610a36818861125d565b8a604051610a4895949392919061138c565b60405180910390a36000610a5c85346113d3565b90508015610a6e57610a6e8682610cee565b505050505050505050565b7ff265e6f4485879ff06917e0b78d882e64c54d090917c00d06bf8720a31ba1256610aa381610aec565b506003805467ffffffffffffffff19166001600160401b0392909216919091179055565b600082815260208190526040902060010154610ae281610aec565b6104cc8383610b88565b61051d8133610dc3565b6000610b0283836107ea565b610b80576000838152602081815260408083206001600160a01b03861684529091529020805460ff19166001179055610b383390565b6001600160a01b0316826001600160a01b0316847f2f8788117e7eff1d82e926ec794901d17c78024a50270940304540a733656f0d60405160405180910390a45060016104a1565b5060006104a1565b6000610b9483836107ea565b15610b80576000838152602081815260408083206001600160a01b0386168085529252808320805460ff1916905551339286917ff6391f5c32d9c69d2a47ea670b442974b53935d1edc7fd64eb21e047a839171b9190a45060016104a1565b610bfb610e00565b6001805460ff191690557f5db9ee0a495bf2e6ff9c91a7834c1ba4fdd244a5e8aa4e537bd38aeae4b073aa335b6040516001600160a01b03909116815260200160405180910390a1565b60015461010090046001600160a01b0316610c725760405162dc149f60e41b815260040160405180910390fd5b60015461010090046001600160a01b03163314610ca257604051630d622feb60e01b815260040160405180910390fd5b610cad600083610af6565b50610cd87f65d7a28e3265b37a6474929f336521b332c1681b933f6cb9f3376673440d862a82610af6565b505060018054610100600160a81b031916905550565b6000826001600160a01b03168260405160006040518083038185875af1925050503d8060008114610d3b576040519150601f19603f3d011682016040523d82523d6000602084013e610d40565b606091505b505090508061050557604051631583ef2560e21b815260040160405180910390fd5b610d6a610d9d565b6001805460ff1916811790557f62e78cea01bee320cd4e420270b5ea74000d11b0c9f74754ebdbfc544b05a25833610c28565b60015460ff1615610dc15760405163d93c066560e01b815260040160405180910390fd5b565b610dcd82826107ea565b6105b25760405163e2517d3f60e01b81526001600160a01b03821660048201526024810183905260440160405180910390fd5b60015460ff16610dc157604051638dfc202b60e01b815260040160405180910390fd5b508054600082556003029060005260206000209081019061051d91905b80821115610e82576000610e548282610e86565b506001810180546001600160e01b031916905560028101805467ffffffffffffffff19169055600301610e40565b5090565b508054610e92906111b9565b6000825580601f10610ea2575050565b601f01602090049060005260206000209081019061051d91905b80821115610e825760008155600101610ebc565b600060208284031215610ee257600080fd5b81356001600160e01b031981168114610efa57600080fd5b9392505050565b600060208284031215610f1357600080fd5b5035919050565b80356001600160a01b0381168114610f3157600080fd5b919050565b60008060408385031215610f4957600080fd5b82359150610f5960208401610f1a565b90509250929050565b60008060408385031215610f7557600080fd5b610f7e83610f1a565b9150610f5960208401610f1a565b600060208284031215610f9e57600080fd5b610efa82610f1a565b80356001600160401b0381168114610f3157600080fd5b600060208284031215610fd057600080fd5b610efa82610fa7565b6000815180845260005b81811015610fff57602081850181015186830182015201610fe3565b506000602082860101526020601f19601f83011685010191505092915050565b600060208083018184528085518083526040925060408601915060408160051b87010184880160005b838110156110b357603f1989840301855281516080815181865261106e82870182610fd9565b838b01516001600160a01b0316878c0152898401516001600160401b039081168b89015260609485015116939096019290925250509386019390860190600101611048565b509098975050505050505050565b634e487b7160e01b600052604160045260246000fd5b600080600080608085870312156110ed57600080fd5b6110f685610fa7565b935060208501356001600160401b038082111561111257600080fd5b818701915087601f83011261112657600080fd5b813581811115611138576111386110c1565b604051601f8201601f19908116603f01168101908382118183101715611160576111606110c1565b816040528281528a602084870101111561117957600080fd5b8260208601602083013760006020848301015280975050505050506111a060408601610fa7565b91506111ae60608601610f1a565b905092959194509250565b600181811c908216806111cd57607f821691505b6020821081036111ed57634e487b7160e01b600052602260045260246000fd5b50919050565b634e487b7160e01b600052601160045260246000fd5b80820281158282048414176104a1576104a16111f3565b6001600160401b03828116828216039080821115611240576112406111f3565b5092915050565b634e487b7160e01b600052603260045260246000fd5b6001600160401b03818116838216019080821115611240576112406111f3565b601f821115610505576000816000526020600020601f850160051c810160208610156112a65750805b601f850160051c820191505b818110156112c5578281556001016112b2565b505050505050565b81516001600160401b038111156112e6576112e66110c1565b6112fa816112f484546111b9565b8461127d565b602080601f83116001811461132f57600084156113175750858301515b600019600386901b1c1916600185901b1785556112c5565b600085815260208120601f198616915b8281101561135e5788860151825594840194600190910190840161133f565b508582101561137c5787850151600019600388901b60f8161c191681555b5050505050600190811b01905550565b60a08152600061139f60a0830188610fd9565b6001600160a01b03969096166020830152506001600160401b03938416604082015291909216606082015260800152919050565b818103818111156104a1576104a16111f356fea164736f6c6343000816000a","linkReferences":{}},"methodIdentifiers":{"BLOCK_GAS_LIMIT_SETTER_ROLE()":"91de737e","DEFAULT_ADMIN_ROLE()":"a217fddf","PAUSER_ROLE()":"e63ab1e9","SEQUENCER_ROLE()":"4842855c","WITHDRAW_ROLE()":"e02023a1","clear()":"52efea6e","getBlockGasLimit()":"2cc8377d","getRoleAdmin(bytes32)":"248a9ca3","getTransactions(uint64)":"552fd4aa","grantRole(bytes32,address)":"2f2ff15d","hasRole(bytes32,address)":"91d14854","initialize(address,address)":"485cc955","initializer()":"9ce110d7","pause()":"8456cb59","paused()":"5c975abb","renounceRole(bytes32,address)":"36568abe","revokeRole(bytes32,address)":"d547741f","setBlockGasLimit(uint64)":"ae0dad60","submitEncryptedTransaction(uint64,bytes,uint64,address)":"a44e7cfe","supportsInterface(bytes4)":"01ffc9a7","unpause()":"3f4ba83a","withdraw(address)":"51cff8d9"},"storageLayout":{"storage":[{"astId":43414,"contract":"src/Inbox.sol:Inbox","label":"_roles","offset":0,"slot":"0","type":"t_mapping(t_bytes32,t_struct(RoleData)43409_storage)"},{"astId":43945,"contract":"src/Inbox.sol:Inbox","label":"_paused","offset":0,"slot":"1","type":"t_bool"},{"astId":46742,"contract":"src/Inbox.sol:Inbox","label":"initializer","offset":1,"slot":"1","type":"t_address"},{"astId":45978,"contract":"src/Inbox.sol:Inbox","label":"transactions","offset":0,"slot":"2","type":"t_mapping(t_uint64,t_array(t_struct(Transaction)45937_storage)dyn_storage)"},{"astId":45980,"contract":"src/Inbox.sol:Inbox","label":"blockGasLimit","offset":0,"slot":"3","type":"t_uint64"}],"types":{"t_address":{"encoding":"inplace","label":"address","numberOfBytes":"20"},"t_array(t_struct(Transaction)45937_storage)dyn_storage":{"encoding":"dynamic_array","label":"struct Inbox.Transaction[]","numberOfBytes":"32","base":"t_struct(Transaction)45937_storage"},"t_bool":{"encoding":"inplace","label":"bool","numberOfBytes":"1"},"t_bytes32":{"encoding":"inplace","label":"bytes32","numberOfBytes":"32"},"t_bytes_storage":{"encoding":"bytes","label":"bytes","numberOfBytes":"32"},"t_mapping(t_address,t_bool)":{"encoding":"mapping","key":"t_address","label":"mapping(address => bool)","numberOfBytes":"32","value":"t_bool"},"t_mapping(t_bytes32,t_struct(RoleData)43409_storage)":{"encoding":"mapping","key":"t_bytes32","label":"mapping(bytes32 => struct AccessControl.RoleData)","numberOfBytes":"32","value":"t_struct(RoleData)43409_storage"},"t_mapping(t_uint64,t_array(t_struct(Transaction)45937_storage)dyn_storage)":{"encoding":"mapping","key":"t_uint64","label":"mapping(uint64 => struct Inbox.Transaction[])","numberOfBytes":"32","value":"t_array(t_struct(Transaction)45937_storage)dyn_storage"},"t_struct(RoleData)43409_storage":{"encoding":"inplace","label":"struct AccessControl.RoleData","numberOfBytes":"64","members":[{"astId":43406,"contract":"src/Inbox.sol:Inbox","label":"hasRole","offset":0,"slot":"0","type":"t_mapping(t_address,t_bool)"},{"astId":43408,"contract":"src/Inbox.sol:Inbox","label":"adminRole","offset":0,"slot":"1","type":"t_bytes32"}]},"t_struct(Transaction)45937_storage":{"encoding":"inplace","label":"struct Inbox.Transaction","numberOfBytes":"96","members":[{"astId":45930,"contract":"src/Inbox.sol:Inbox","label":"encryptedTransaction","offset":0,"slot":"0","type":"t_bytes_storage"},{"astId":45932,"contract":"src/Inbox.sol:Inbox","label":"sender","offset":0,"slot":"1","type":"t_address"},{"astId":45934,"contract":"src/Inbox.sol:Inbox","label":"gasLimit","offset":20,"slot":"1","type":"t_uint64"},{"astId":45936,"contract":"src/Inbox.sol:Inbox","label":"cumulativeGasLimit","offset":0,"slot":"2","type":"t_uint64"}]},"t_uint64":{"encoding":"inplace","label":"uint64","numberOfBytes":"8"}}},"userdoc":{"version":1,"kind":"user"},"devdoc":{"version":1,"kind":"dev","methods":{"getRoleAdmin(bytes32)":{"details":"Returns the admin role that controls `role`. See {grantRole} and {revokeRole}. To change a role's admin, use {_setRoleAdmin}."},"grantRole(bytes32,address)":{"details":"Grants `role` to `account`. If `account` had not been already granted `role`, emits a {RoleGranted} event. Requirements: - the caller must have ``role``'s admin role. May emit a {RoleGranted} event."},"hasRole(bytes32,address)":{"details":"Returns `true` if `account` has been granted `role`."},"paused()":{"details":"Returns true if the contract is paused, and false otherwise."},"renounceRole(bytes32,address)":{"details":"Revokes `role` from the calling account. Roles are often managed via {grantRole} and {revokeRole}: this function's purpose is to provide a mechanism for accounts to lose their privileges if they are compromised (such as when a trusted device is misplaced). If the calling account had been revoked `role`, emits a {RoleRevoked} event. Requirements: - the caller must be `callerConfirmation`. May emit a {RoleRevoked} event."},"revokeRole(bytes32,address)":{"details":"Revokes `role` from `account`. If `account` had been granted `role`, emits a {RoleRevoked} event. Requirements: - the caller must have ``role``'s admin role. May emit a {RoleRevoked} event."},"supportsInterface(bytes4)":{"details":"See {IERC165-supportsInterface}."}},"events":{"Paused(address)":{"details":"Emitted when the pause is triggered by `account`."},"RoleAdminChanged(bytes32,bytes32,bytes32)":{"details":"Emitted when `newAdminRole` is set as ``role``'s admin role, replacing `previousAdminRole` `DEFAULT_ADMIN_ROLE` is the starting admin for all roles, despite {RoleAdminChanged} not being emitted signaling this."},"RoleGranted(bytes32,address,address)":{"details":"Emitted when `account` is granted `role`. `sender` is the account that originated the contract call, an admin role bearer except when using {AccessControl-_setupRole}."},"RoleRevoked(bytes32,address,address)":{"details":"Emitted when `account` is revoked `role`. `sender` is the account that originated the contract call:   - if using `revokeRole`, it is the admin role bearer   - if using `renounceRole`, it is the role bearer (i.e. `account`)"},"Unpaused(address)":{"details":"Emitted when the pause is lifted by `account`."}},"errors":{"AccessControlBadConfirmation()":[{"details":"The caller of a function is not the expected one. NOTE: Don't confuse with {AccessControlUnauthorizedAccount}."}],"AccessControlUnauthorizedAccount(address,bytes32)":[{"details":"The `account` is missing a role."}],"EnforcedPause()":[{"details":"The operation failed because the contract is paused."}],"ExpectedPause()":[{"details":"The operation failed because the contract is not paused."}]}},"id":29}