{"abi":[{"type":"function","name":"getTxCountForEon","inputs":[{"name":"eon","type":"uint64","internalType":"uint64"}],"outputs":[{"name":"","type":"uint64","internalType":"uint64"}],"stateMutability":"view"},{"type":"function","name":"submitDecryptionProgress","inputs":[{"name":"message","type":"bytes","internalType":"bytes"}],"outputs":[],"stateMutability":"nonpayable"},{"type":"function","name":"submitEncryptedTransaction","inputs":[{"name":"eon","type":"uint64","internalType":"uint64"},{"name":"identityPrefix","type":"bytes32","internalType":"bytes32"},{"name":"encryptedTransaction","type":"bytes","internalType":"bytes"},{"name":"gasLimit","type":"uint256","internalType":"uint256"}],"outputs":[],"stateMutability":"payable"},{"type":"event","name":"DecryptionProgressSubmitted","inputs":[{"name":"message","type":"bytes","indexed":false,"internalType":"bytes"}],"anonymous":false},{"type":"event","name":"TransactionSubmitted","inputs":[{"name":"eon","type":"uint64","indexed":false,"internalType":"uint64"},{"name":"txIndex","type":"uint64","indexed":false,"internalType":"uint64"},{"name":"identityPrefix","type":"bytes32","indexed":false,"internalType":"bytes32"},{"name":"sender","type":"address","indexed":false,"internalType":"address"},{"name":"encryptedTransaction","type":"bytes","indexed":false,"internalType":"bytes"},{"name":"gasLimit","type":"uint256","indexed":false,"internalType":"uint256"}],"anonymous":false},{"type":"error","name":"InsufficientFee","inputs":[]}],"bytecode":{"object":"0x608060405234801561001057600080fd5b50610487806100206000396000f3fe6080604052600436106100345760003560e01c80632d32522e146100395780636a69d2e11461005b5780637bbd164b1461006e575b600080fd5b34801561004557600080fd5b5061005961005436600461026c565b6100c5565b005b6100596100693660046102c6565b6100ff565b34801561007a57600080fd5b506100a8610089366004610325565b67ffffffffffffffff9081166000908152602081905260409020541690565b60405167ffffffffffffffff909116815260200160405180910390f35b7fa9a0645b33a70f18b8d490681d637cb46a859ec51707787e6f46b942f90e8f59816040516100f4919061038d565b60405180910390a150565b61010981486103b6565b3410156101285760405162976f7560e21b815260040160405180910390fd5b67ffffffffffffffff8085166000908152602081905260409020541661014f8160016103d3565b67ffffffffffffffff86811660009081526020819052604090819020805467ffffffffffffffff191693909216929092179055517fa7f1b5467be46c45249fb93063cceef96c63ddad03819246bc7770e32d4f5b7d906101ba908790849088903390899089906103fb565b60405180910390a15050505050565b634e487b7160e01b600052604160045260246000fd5b600082601f8301126101f057600080fd5b813567ffffffffffffffff8082111561020b5761020b6101c9565b604051601f8301601f19908116603f01168101908282118183101715610233576102336101c9565b8160405283815286602085880101111561024c57600080fd5b836020870160208301376000602085830101528094505050505092915050565b60006020828403121561027e57600080fd5b813567ffffffffffffffff81111561029557600080fd5b6102a1848285016101df565b949350505050565b803567ffffffffffffffff811681146102c157600080fd5b919050565b600080600080608085870312156102dc57600080fd5b6102e5856102a9565b935060208501359250604085013567ffffffffffffffff81111561030857600080fd5b610314878288016101df565b949793965093946060013593505050565b60006020828403121561033757600080fd5b610340826102a9565b9392505050565b6000815180845260005b8181101561036d57602081850181015186830182015201610351565b506000602082860101526020601f19601f83011685010191505092915050565b6020815260006103406020830184610347565b634e487b7160e01b600052601160045260246000fd5b80820281158282048414176103cd576103cd6103a0565b92915050565b67ffffffffffffffff8181168382160190808211156103f4576103f46103a0565b5092915050565b67ffffffffffffffff878116825286166020820152604081018590526001600160a01b038416606082015260c06080820181905260009061043e90830185610347565b90508260a083015297965050505050505056fea264697066735822122079bfe9560d7fbd77ef40d09c6de9b943e1c835f102a45184a2b5d6bc029440aa64736f6c63430008160033","linkReferences":{}},"methodIdentifiers":{"getTxCountForEon(uint64)":"7bbd164b","submitDecryptionProgress(bytes)":"2d32522e","submitEncryptedTransaction(uint64,bytes32,bytes,uint256)":"6a69d2e1"},"id":27}